:020000040800F2
:100000006006002045010008CF1D0008D11A000835
:10001000CD1D0008EF040008652300080000000063
:10002000000000000000000000000000D31D0008D8
:10003000F104000800000000D11D0008D51D0008D3
:100040005F0100085F0100085F0100085F01000810
:100050005F0100085F0100085F0100085F01000800
:100060005F0100085F0100085F0100085F010008F0
:100070005F0100085F0100085F0100085F010008E0
:100080005F0100085F0100085F0100085F010008D0
:100090005F0100085F0100085F0100085F010008C0
:1000A0005F0100085F0100085F0100085F010008B0
:1000B0005F0100085F010008391E00085F010008A9
:1000C0005F0100085F0100085F0100085F01000890
:1000D0005F010008252300085F0100084523000890
:1000E0005F0100085F0100085F0100085F01000870
:1000F0005F0100085F0100085F0100085F01000860
:100100005F0100085F0100085F0100085F0100084F
:100110005F0100085F0100085F0100085F0100083F
:100120005F0100085F0100085F0100085F0100082F
:10013000DFF80CD000F068F90048004701260008FD
:10014000600600200648804706480047FEE7FEE7B5
:10015000FEE7FEE7FEE7FEE7FEE7FEE7FEE7FEE777
:10016000371E000831010008D2B201E000F8012B6F
:10017000491EFBD270470022F6E710B513460A4627
:1001800004461946FFF7F0FF204610BD70B506463D
:1001900002F00AF9046805460A220021304600F000
:1001A000C4F82C6070BDF0B480EA0102D40F4200A4
:1001B000B2EB410F02D20246084611464A0042D035
:1001C000C30DDDB2C1F3C752AD1A202D35DAC1F32C
:1001D000160141F4000204B15242C5F1200602FAB0
:1001E00006F12A411044B3EBD05F23D0C4B1012DF6
:1001F000A0EBC35009DCF0BC4FF0004202EAC3524E
:10020000DBB200F5000000F0D1B8400000F18070D2
:1002100000EBC350A0F1807040EAD170490009E0C2
:10022000490841EAC071A0EBC35000F50000400846
:1002300000EBC350F0BC00F0B0B86142012202EB09
:100240004101001BF6E7F0BC704781F00041AAE7CE
:1002500080F00040A7E780EA010210B502F00043F9
:10026000400022D04A001FD0010E01EB1261C0F302
:100270005600C2F3560240F4000042F40002A0FB14
:10028000022000047F39140400D0401C50EA1240C0
:1002900001D44000491EC2B20C0604EBD010401C31
:1002A0004008802A02D003E0002010BD20F00100A9
:1002B000002900DA0020184310BDC10F80EAE07069
:1002C0000844CA079623002100F070B800F00042ED
:1002D00020F00040C10DC0F3160040F400007F295B
:1002E00001DA00207047962903DCC1F19601C8406D
:1002F00001E096398840002AF4D04042704730B57A
:100300000B46014600202022012409E021FA02F5D3
:100310009D4205D303FA02F5491B04FA02F528446D
:10032000151EA2F10102F1DC30BD2DE9F047914626
:100330000F4680460446002614F8015B2DB100F0FC
:1003400075F80068405DC007F6D12B2D02D02D2D29
:1003500018D0641E4A463946204600F06BF827B193
:100360003968A14201D1C7F8008071054FF002043D
:100370000BD54042002803DD02F016F80460A00708
:10038000BDE8F08746F48066E4E70028F8DA02F07A
:100390000BF804606FF00040F2E70029A8BF704737
:1003A000401C490008BF20F00100704710B4B0FAAB
:1003B00080FC00FA0CF050EA010404BF10BC704746
:1003C00049B1CCF1200421FA04F411FA0CF118BF60
:1003D000012121430843A3EB0C01CB1D4FEA00612F
:1003E0004FEA102042BF002010BC704700EBC35002
:1003F00010440029A4BF10BC7047401C490008BF2E
:1004000020F0010010BC7047064C074D06E0E06884
:1004100040F0010394E8070098471034AC42F6D34B
:10042000FFF78AFEC0290008E0290008004870474D
:10043000BC2900082DE9F05F8246007800271546A8
:100440008B460AF10104B946302801D09DB113E072
:1004500014F8010B0127782803D0582801D045B1A2
:100460000AE00DB1102D07D10027102514F8010B5B
:1004700002E0082500E00A250026B0460EE005FB54
:10048000080005FB06F1012701EB10461FFA80F872
:10049000B6F5803F00D3B94614F8010B294600F0A9
:1004A00018F80028EBDABBF1000F05D00FB1641E7D
:1004B00000E05446CBF80040B9F1000F06D001F03F
:1004C00073FF02210160C81EBDE8F09F48EA0640A4
:1004D000FAE73A2800D2303820F02002412A01D32E
:1004E000A2F13700884201D34FF0FF307047FEE79A
:1004F000704772B6FEE7002800DC4042704710B536
:1005000090F821100022022905D00421816380F88F
:100510002020012010BD01680B6823F00E030B6042
:1005200001680B6823F001030B6090F84030C46B46
:10053000012101FA03F3636080F8211080F8202084
:10054000104610BD2DE9F05F90F82110002402291B
:1005500003D004218163012485E001680A6822F048
:100560000E020A6001680A6822F001020A603F4E2A
:100570003E4FB215DFF8F4C0DFF8F090DFF8ECA0E2
:10058000DFF8E8B0DFF8E4E00168783F1301150216
:10059000ACF1640CA9F15009AAF13C0AABF1280BAB
:1005A000AEF1140E4FF48018B14227D9B9420ED0E3
:1005B000614512D049451DD0514518D0594518D034
:1005C000714501D1424615E0294EB14201D10122C7
:1005D00010E0274E1436B14201D110220AE0244E19
:1005E0002836B14206D0224A3C32914201D11A4605
:1005F00000E02A461E49091F0A602BE0B94213D0C9
:10060000614517D0494522D051451DD059451DD0CF
:10061000714501D142461AE0B14202D14FF08072D9
:1006200015E0134EB14201D1012210E0104E1436F4
:10063000B14201D110220AE00D4E2836B14206D057
:100640000B4A3C32914201D11A4600E02A46074942
:1006500080394A60012180F82110002180F82010A3
:10066000416B01B188472046BDE8F09F8000024001
:10067000080402402DE9F84FDFF8C891002409F181
:10068000040A0AF1040B23460F270BF1040ED1E0F4
:100690000125A54006EA0502AA4276D1DFF8A8C1E5
:1006A0004E68A6EB0C0866452BD00DDC032E34D02B
:1006B00005DC36B3012E19D0022E2FD11BE0112EEE
:1006C00016D0122E2AD119E0B8F5881F19D006DCF1
:1006D000B8F5803F15D0B8F5801F1FD111E0B8F5EF
:1006E000001F0ED0B8F5041F18D10AE0CB6815E042
:1006F000CB681B1D12E0CB6808330FE0CB680C33CE
:100700000CE08B682BB1012B4FF0080303D045613F
:1007100004E0042302E0056100E00023FF2A01D881
:10072000064601E000F104064FEA840501D9A5F16F
:100730002005D6F8008007FA05FC28EA0C0803FA21
:1007400005F548EA0508C6F800804D68ED0070D54B
:100750003E4DAE6946F00106AE61AD6924F0030678
:1007600005F0010500953A4D06EB050CDCF8085044
:10077000A607360F07FA06F825EA0805DFF8D48041
:10078000404503D14FF0000825E052E0DFF8C88073
:10079000404502D14FF001081DE0DFF8C080404520
:1007A00002D14FF0020816E0DFF8B480404502D1D4
:1007B0004FF003080FE0DFF8AC80404502D14FF066
:1007C000040808E0DFF8A080404502D14FF005089A
:1007D00001E04FF0060808FA06F848EA0508CCF8E8
:1007E00008804D68D9F80060ED034D4601D51643E9
:1007F00000E096432E604D68DAF80060AD03554680
:1008000001D5164300E096432E604D68DBF800608A
:10081000ED025D4601D5164300E096432E604D681B
:10082000DEF80060AD02754601D5164300E0964340
:100830002E60641C0A681646E2407FF429AFBDE8CA
:10084000F88F000000040140000011100010024069
:100850000000014000080140000C01400010014070
:100860000014014000180140001C01400AB1016160
:1008700070470904FBE700000148806870470000EA
:10088000C0000020024881680278114481607047EE
:10089000C0000020074810B5016841F01001016058
:1008A000032000F075F80F2000F006F800F024F89F
:1008B000002010BD0020024070B50D4D04464FF4DD
:1008C0007A712878B1FBF0F00A490968B1FBF0F0C1
:1008D00000F0ECFA48B9102C07D200222146501E35
:1008E00000F036F800206C6070BD012070BD000083
:1008F000C0000020CC0000200C4808B5816941F000
:1009000001018161816901F001010091C16941F03A
:100910008051C161C06900F0805000900448416876
:1009200021F0E06141F00071416008BD001002401B
:1009300000000140002809DB00F01F020121914066
:100940004009800000F1E020C0F80011704700006D
:10095000F0B40E4B1B680C46C3F30223C3F107052A
:10096000042D00D90425191D072901D2002300E018
:10097000DB1E012606FA05F1491E214099409E40E2
:10098000761E16403143F0BC01F0FEBC0CED00E0D9
:10099000064900F0070208684FF6FF03184040EAD6
:1009A0000220034A10430860704700000CED00E08D
:1009B0000000FA052DE9F0470F46050061D0434ECF
:1009C000306800F00700B84209D2306820F0070014
:1009D00038433060306800F00700B84251D12868D1
:1009E0003B4C810712D5400703D5606840F4E060B6
:1009F00060602878000703D5606840F4605060604C
:100A00006068A96820F0F000084360602878C0079B
:100A100028D06868012810D02168022810D08907E2
:100A200000292EDA616821F0030101436160FFF7BC
:100A300023FF804641F288390DE021688903EFE702
:100A40008901EDE7FFF718FFA0EB0801494502D93E
:100A50000320BDE8F0876068696800F00C00B0EB27
:100A6000810FEFD1306800F00700B8420BD9306831
:100A700020F0070038433060306800F00700B842CB
:100A800001D00120E5E72878400705D56068E968CE
:100A900020F4E060084360602878000706D56068AD
:100AA000296920F4605040EAC100606000F038F825
:100AB0006168084AC1F30311515CC84006490860E7
:100AC00006480068FFF7F8FE0020C2E70020024059
:100AD0000010024020290008CC000020C4000020A3
:100AE0000448054900684968044AC1F30221515C81
:100AF000C8407047CC000020001002403029000898
:100B00000448054900684968044AC1F3C221515CA0
:100B1000C8407047CC000020001002403029000877
:100B200012A185B00FC98DE80F0014A0144A006807
:100B300004905168134801F00C03042B10D0082BCB
:100B40000ED1C1F38343C9031DF803000AD55168D0
:100B500004AAC1F34041515C0A4A5043B0FBF1F092
:100B600005B0704708494843FAE70000020304054E
:100B7000060708090A0B0C0D0E0F101001020000E9
:100B80000010024000127A0000093D002DE9F84FE4
:100B9000040070D02078C04DC00749D06868C0F309
:100BA0008100012807D06868C0F38100022809D1BC
:100BB0006868C00306D52868800339D560680028B6
:100BC000E7D035E06068B0F5803F0BD010B1B0F5EC
:100BD000A02F11D0286820F480302860286820F4E5
:100BE000802002E0286840F480302860606890B17E
:100BF000FFF742FE06460AE0286840F4802028609D
:100C0000F0E700BFFFF738FE801B642873D8286820
:100C10008003F7D50CE0FFF72FFE064605E000BF86
:100C2000FFF72AFE801B6428F0D828688003F7D4D9
:100C300020789A4E80074FF001094FF0000839D50F
:100C4000686810F00C0F07D06868C0F381000228B4
:100C500009D16868C00306D42868800714D52069C4
:100C6000012808D110E02069B0B1C6F80090FFF764
:100C700003FE074605E00AE1FFF7FEFDC01B022860
:100C8000C4D828688007F7D52868616920F0F80083
:100C900040EAC10028600DE0C6F80080FFF7ECFDD7
:100CA000074604E0FFF7E8FDC01B022823D82868A8
:100CB0008007F7D4207800072CD57948A169D9B1ED
:100CC000C0F80090FFF7D8FD074604E0FFF7D4FD19
:100CD000C01B02280FD8686A8007F7D571484FF407
:100CE000FA510068B0FBF1F0009000BF0098411E7F
:100CF0000091FAD20EE080E0C0F80080FFF7BCFD62
:100D0000074604E0FFF7B8FDC01B022875D8686AE3
:100D10008007F7D42078400760D5E8690027C00035
:100D200008D4E86940F08050E861E869012700F0E4
:100D3000805000905C480168C90513D4016883465F
:100D400041F480710160FFF797FD824606E000BF25
:100D5000FFF792FDA0EB0A0064284ED8DBF80000F4
:100D6000C005F5D5E06801280AD008B1052813D0E0
:100D7000286A20F001002862286A20F0040002E0BE
:100D8000286A40F001002862E06841F2883B98B18F
:100D9000FFF772FD82460BE0286A40F004002862EB
:100DA000EEE700BFFFF768FDA0EB0A0159455AD8EE
:100DB000286A8007F6D50CE0FFF75EFD824605E065
:100DC000FFF75AFDA0EB0A0159454CD8286A800765
:100DD000F6D41FB1E86920F08050E861E06988B37B
:100DE0006968C1F38101022944D00228C6F86080F5
:100DF00004D0FFF741FD044638E034E0FFF73CFD46
:100E0000074604E0FFF738FDC01B02282BD82868EE
:100E10008001F7D4206AB0F5803F05D16868A168E9
:100E200020F4003008436860D4E908010843696889
:100E300021F4741108436860C6F86090FFF71CFD48
:100E4000044606E025E000BFFFF716FD001B022860
:100E500009D828688001F7D51BE000BFFFF70CFD1B
:100E6000001B022802D90320BDE8F88F2868800102
:100E7000F4D40EE00128F7D06868226A00F48031CB
:100E8000914204D1616A00F47010884201D00120BF
:100E9000EAE70020E8E700000010024000004242BC
:100EA00080044242CC0000200070004010B5401E7B
:100EB000B0F1807F01D3012010BD4FF0E0246061CC
:100EC0000F21601701F060FA0020A0610720206167
:100ED000002010BD7047704770B590F83C20012A83
:100EE0002CD0012480F83C40022280F83D20036889
:100EF0005A689D6822F070060A6832435A60104BA7
:100F000002689A420ED00F4B9A420BD0B2F1804F3A
:100F100008D00D4B9A4205D00C4B9A4202D00C4B94
:100F20009A4204D1496825F080031943916080F802
:100F30003D40002180F83C10084670BD022070BD85
:100F4000002C014000340140000400400008004033
:100F5000000C004010B5040003D094F83D0010B11F
:100F600007E0012010BD002084F83C00204600F07E
:100F70001FF8022084F83D00211D206800F062FF68
:100F8000012084F8460084F83E0084F83F0084F88D
:100F9000400084F8410084F8420084F8430084F85B
:100FA000440084F8450084F83D00002010BD000096
:100FB00008B501681648B1F1804F0BD0154A91422F
:100FC00010D1C16941F00201C161C06900F00200A5
:100FD000009008BDC16941F00101C161C06900F024
:100FE0000100F5E70C4A9142F3D1C16941F00401D7
:100FF000C161C069002200F00400009011461E206B
:10100000FFF7A6FCBDE808401E20FFF793BC0000D8
:1010100000100240000400400008004090F83D101D
:10102000012901D001207047022180F83D1001689C
:10103000CA6842F00102CA6000680E4988420ED0B8
:101040000D4988420BD0B0F1804F08D00B4988423F
:1010500005D00B49884202D00A49884204D18168F0
:1010600001F00701062903D0016841F00101016088
:1010700000207047002C0140003401400004004073
:1010800000080040000C00400168CA6822F001021C
:10109000CA6001680A6A41F211131A4207D10A6A4A
:1010A0009B101A4203D10A6822F001020A60012152
:1010B00080F83D100020704770B5044690F83C0061
:1010C000012817D0012584F83C50022084F83D0007
:1010D0002068826822F0770222F47F4282600868EA
:1010E000502830D00DDC20284DD005DC98B31028D6
:1010F0003BD148E0022070BD302844D0402834D194
:1011000039E0602828D0702806D0B0F5805F2CD058
:10111000B0F5005F29D10AE0CB68D1E90121206850
:1011200000F0E3FE2068816841F0770109E0CB68B8
:10113000D1E90121206800F0D8FE2068816841F4DF
:101140008041816011E0CA684968206800F0A2FF10
:101150005021206807E016E0CA684968206800F05E
:10116000AAFF6021206800F0CAFE84F83D500020EC
:1011700084F83C0070BDCA684968206800F08AFFA6
:1011800040212068EFE7226801461046EBE77047F0
:1011900070B50446006801694FF00005C94389072E
:1011A00015D4C168C943890711D4E91E0161012022
:1011B0002077206880698007204602D0FFF7E7FF8C
:1011C00004E000F0CDF8204600F05CF925772068B7
:1011D0000169C943490717D4C168C943490713D4F2
:1011E0006FF004010161022020772068806910F40B
:1011F000407F204602D0FFF7CAFF04E000F0B0F8BD
:10120000204600F03FF9257720680169C9430907A6
:1012100016D4C168C943090712D46FF008010161EF
:10122000042020772068C0698007204602D0FFF79D
:10123000AEFF04E000F094F8204600F023F9257793
:1012400020680169C943C90617D4C168C943C906E2
:1012500013D46FF010010161082020772068C06965
:1012600010F4407F204602D0FFF791FF04E000F029
:1012700077F8204600F006F9257720680169C94310
:10128000C90708D1C168C943C90704D1891E0161D2
:10129000204600F053F920680169C943090609D4C2
:1012A000C168C943090605D46FF080010161204679
:1012B000FFF710FE20680169C943490609D4C168D7
:1012C000C943490605D46FF040010161204600F092
:1012D00059F920680169C94389060BD4C168C9431B
:1012E000890607D46FF0200101612046BDE87040F7
:1012F000FFF7F1BD70BD000010B586B00021009170
:101300000191029103910368124A02211248B3F13C
:10131000804F13D0114CA3420ED1936943F00403C4
:1013200093619269039102F0040204924022CDE994
:1013300000216946FFF79EF906B010BD936943F09E
:10134000040393619269009102F004020191CDE9D6
:101350000312EEE7001002400008014000040040C4
:10136000704770B5044690F83C000D4601280AD03D
:10137000012084F83C0042B1042A18D0082A2AD05F
:101380000C2A4DD139E0022070BD206800F0C0FD6C
:101390002068816941F0080181612068816921F03C
:1013A00004018161206881692A69114311E0206884
:1013B00000F0DEFD2068816941F4006181612068F0
:1013C000816921F480618161206881692A6941EA2B
:1013D0000221816124E0206800F000FE2068C169DC
:1013E00041F00801C1612068C16921F00401C161B7
:1013F0002068C1692A69114311E0206800F022FECB
:101400002068C16941F40061C1612068C16921F4AB
:101410008061C1612068C1692A6941EA0221C16114
:10142000002084F83C0070BD10B5040003D094F88F
:101430003D0010B107E0012010BD002084F83C0001
:10144000204600F01EF8022084F83D00211D20688F
:1014500000F0F8FC012084F8460084F83E0084F88F
:101460003F0084F8400084F8410084F8420084F88A
:10147000430084F8440084F8450084F83D000020CF
:1014800010BD70477047000010B50446022249B1F4
:1014900004290ED0082913D094F84100012816D051
:1014A000012010BD94F83E000128F9D184F83E20B7
:1014B0000FE094F83F000128F2D184F83F2008E0C3
:1014C00094F840000128EBD184F8402001E084F832
:1014D00041200122206800F0FBFC13492068134AD8
:1014E000884201D0904203D1436C43F400434364EB
:1014F000206888420DD090420BD0B0F1804F08D0C8
:101500000B49884205D00B49884202D00A498842DB
:1015100004D1816801F00701062903D0016841F078
:1015200001010160002010BD002C01400034014089
:101530000004004000080040000C004000680C4916
:10154000884210D10B480C4902680C481E323C2AD4
:101550000AD80B4A12681E323C2A04D801220A60BB
:101560000168491C01607047002202600A607047F0
:101570000008004094000020900000208C00002013
:10158000980000207047704770470000F8B5026867
:1015900004461068D168536910F00F0F4FF0000532
:1015A00053D003F0010601F4907737435FD0C207B0
:1015B00005D0CA0503D5226C42F00102226442071D
:1015C00005D5DA0703D0226C42F0020222648207BA
:1015D00005D5DA0703D0226C42F004022264020728
:1015E00007D501F02002324303D0226C42F00802FA
:1015F0002264226C002A34D0800604D5880602D5E5
:10160000204600F08AFD20684069216CC0F38010FC
:10161000090700D430B3204600F067FD2068416917
:1016200049061BD5416921F040014161A06BA8B179
:1016300058494163A06BFEF785FF002811D0A06BCD
:10164000416B01B0BDE8F040084783060FD58B061B
:101650000DD52046BDE8F84000F05FBD2046FFF7FD
:1016600093FFF8BD2046FFF78FFF2564F8BD266B7A
:101670002023012E52D1C60650D5CE064ED5106875
:1016800050680090506940062AD5A16B08684068F0
:101690000004000CEAD0A68D8642E7D9E08588696F
:1016A000202818D0D06820F48070D060206841696C
:1016B00021F0010141612068416921F0400141614F
:1016C00084F83E3025632068C16821F01001C160B4
:1016D000A06BFEF714FFA08DE18D401A81B219E0D6
:1016E000A08DE18D401A81B2E08D0028BED0002986
:1016F000BCD0D06820F49070D0602068426922F09D
:101700000102426184F83E3025632068C26822F0FD
:101710001002C2602046FFF736FFF8BD05062BD544
:101720000D0629D594F83D002128F6D1A068B0F522
:10173000805F01D12069B0B1206A411C216221681B
:1017400000784860E08C401E0004000CE084E4D186
:101750002068C16821F08001C1602068C16841F043
:101760004001C160F8BD206A0088C0F308005060E5
:10177000206A801C2062E5E74006F3D54806F1D5D3
:10178000D168204621F04001D16084F83D3000F05E
:101790009EF9F8BDDB20000870B5040004D094F871
:1017A0003D00002510B106E0012070BD84F83C50DA
:1017B000204600F023F8242084F83D002068C1680A
:1017C00021F40051C160204600F002FD206801694B
:1017D00021F4904101612068416921F02A014161B1
:1017E0002068C16841F40051C1602564202084F85C
:1017F0003D0084F83E00002070BD000070B586B04A
:101800000024009401940294039403682E482D4E02
:10181000022103220515B34226D1836943F4804394
:101820008361836903F480430493836943F0040371
:1018300083618069254E00F0040004900802CDE920
:101840000001039269463046FEF714FFCDE90054CB
:10185000694630460294FEF70DFF00220121252043
:10186000FFF776F8252028E0194EB34227D1C36947
:1018700043F48023C361C36903F480230493836921
:1018800043F0080383618069CDE9005100F008004E
:10189000CDE903200F4D69462846FEF7EBFEE8141C
:1018A000CDE90004694628460294FEF7E3FE0022D3
:1018B00002212720FFF74CF82720FFF73BF806B05E
:1018C00070BD0000003801400010024000080140D7
:1018D00000480040000C014090F83E30202B0ED113
:1018E00059B152B190F83C30012B08D0012380F857
:1018F0003C300023036300F0C7BC01207047022086
:101900007047000070B52F4B026801219A4229D11F
:101910002D4A1278732A0FD0612A0FD02B4B622ADE
:1019200010D0632A10D0642A10D0412A10D0422A45
:1019300012D0432A12D015E0254A12E0254A116040
:10194000254A0EE0254A04E0254A02E0254A00E047
:10195000254A1160196005E0244A02E0244A11601A
:10196000244A11600068244A904224D12348244B21
:10197000244C0078244A232806D00025212805D0AD
:101980001B68012B06D00AE019600CE01F4E316085
:101990001D6008E01E4E1368F0545B1C13602A287B
:1019A0000AD040280AD02168012904D1194B516876
:1019B0005854491C516070BD216070BD16480160CB
:1019C000256070BD00380140410000204400002027
:1019D0009C00002068000020480000206C000020CF
:1019E000700000207400002078000020A800002073
:1019F000AC000020500000200048004040000020C3
:101A0000B0000020B4000020B800002084000020B6
:101A1000D8000020EC000020880000202DE9F843C9
:101A2000044690F83D001F4616460D4620284CD12E
:101A3000C5B1BEB194F83C00012846D0012084F81D
:101A40003C004FF00008C4F84080212084F83D009D
:101A5000FEF712FFA6848146E684A068B0F5805F99
:101A600003D004E00120BDE8F883206928B12E46A8
:101A70005FF0000584F83C800EE00026FAE7802144
:101A8000204600F01CFCA0B9AEB116F8010B21688D
:101A90004860E08C401EE084E08C4B464FF0000232
:101AA00000970028EBD14FF04001204600F007FCE2
:101AB00030B10320D7E735F8020BC0F30800E6E7A2
:101AC000202084F83D000020CDE70220CBE77047BE
:101AD000FEE740F24C41884203DC4FF42F7188420C
:101AE00000DA0846704740F2A46240F21451904276
:101AF00001DD104670478842FCDA08467047000056
:101B000000B5FEF7F8FC054A126890630846FEF738
:101B1000F2FC03490968486300BD00000001002091
:101B2000480100202DE9F04385B0002420480094AE
:101B3000019402940394816941F0400181618169BB
:101B400001F040010491816941F0040181618169E2
:101B500001F004010491816941F00801816180690B
:101B6000DFF8508000F00800049000222021404659
:101B7000FEF77CFEDFF84090002220214846FEF769
:101B800075FE20250227012603970095CDE9016403
:101B900069464046FEF76EFD03970095CDE9016466
:101BA00069464846FEF766FD05B0BDE8F0830000D3
:101BB0000010024000180140000C014010B58EB02A
:101BC00000240794089409940A940B941C216846F5
:101BD0000C94FEF7D0FA1F484FF080410160472176
:101BE000C0E9011444F61F61C0E903148461FFF7E2
:101BF000B1F908B1FEF77DFC4FF48050079007A9BA
:101C00001448FFF759FA08B1FEF773FC1148FFF7C3
:101C10000BFC08B1FEF76DFC0B940BA90D480C945E
:101C2000FFF75AF908B1FEF764FC6020009041F21A
:101C30008830CDE901040422694606480494FFF780
:101C400090FB08B1FEF755FC0248FFF755FB0EB0BC
:101C500010BD00000001002010B58EB000240794D4
:101C6000089409940A940B941C2168460C94FEF77E
:101C700082FA1F481D4901604721C0E9011444F65A
:101C80001F61C0E903148461FFF764F908B1FEF72E
:101C900030FC4FF48050079007A91548FFF70CFA65
:101CA00008B1FEF726FC1248FFF7BEFB08B1FEF7AD
:101CB00020FC0B940BA90E480C94FFF70DF908B10A
:101CC000FEF717FC6020009041F28830CDE9010456
:101CD0000022694606480494FFF743FB08B1FEF76B
:101CE00008FC0348FFF708FB0EB010BD00040040DD
:101CF0004801002010B586B00024174800940194D4
:101D000002940394049413490594016040F2CF2196
:101D1000C0E9011440F2E731C0E903148461FFF720
:101D200019F908B1FEF7E5FB4FF4805000906946C1
:101D30000948FFF7C1F908B1FEF7DBFB049404A9D9
:101D400005480594FFF7C8F8002801D0FEF7D1FB3D
:101D500006B010BD00080040900100200C4810B5EE
:101D60000A4901604FF4E1314160002181600C2299
:101D7000C160C0E904128161C161FFF70DFD002857
:101D800003D0BDE81040FEF7B4BB10BD00380140E1
:101D9000D80100200C4810B50A4901604FF4E13128
:101DA0004160002181600C22C160C0E904128161A0
:101DB000C161FFF7F1FC002803D0BDE81040FEF739
:101DC00098BB10BD004800401C020020FEE7FEE763
:101DD00070477047FEF756BD30B58FB02821684672
:101DE000FEF7C9F914210AA8FEF7C5F90121080474
:101DF000CDE900100024029402250491CDE907509A
:101E00004FF4E01009906846FEF7C0FE08B172B6C4
:101E1000FEE70F20CDE90A054FF48060CDE90C40C4
:101E200002210AA80E94FEF7C5FD002801D072B663
:101E3000FEE70FB030BD70470148FFF7A9B90000B9
:101E400090010020F0B502681C4B1D4D1D4E1E4F29
:101E50001E4C4FF0804C984209D0A04207D06045FC
:101E600005D0A84203D0B04201D0B84204D122F03C
:101E7000700E4A6842EA0E02984209D0A04207D08A
:101E8000604505D0A84203D0B04201D0B84203D18A
:101E900022F44075CA682A434D6922F080022A4321
:101EA00002608A68C2620A688262984201D0A042D7
:101EB00001D10969016301214161F0BD002C01409C
:101EC0000004004000080040000C004000340140C5
:101ED00010B501F01F030121046A99408C4304628C
:101EE000016A9A401143016210BD10B5846842EA4C
:101EF000032224F47F440A432243826010BD826897
:101F000022F070020A4342F007018160704700002E
:101F1000F0B5026A22F001020262036A4268846933
:101F2000124E24F073050C682C4323F002058B68D5
:101F30002B430D4DA84201D0B04205D123F0080734
:101F4000CB683B4323F00403A84201D0B04205D143
:101F50004D6922F4407215438A692A4342608461C4
:101F6000496841630362F0BD002C01400034014028
:101F7000F0B5026A22F010020262026A43688469C4
:101F80000D6824F4E64444EA05248D6822F020021A
:101F900042EA05120F4D104EA84201D0B04206D1C0
:101FA000CF6822F0800242EA071222F04002A842E3
:101FB00001D0B04207D14D6923F4406343EA850361
:101FC0008D6943EA850343608461496881630262E5
:101FD000F0BD0000002C014000340140F0B5026A61
:101FE00022F480720262026A4368C46922F40072B9
:101FF00024F073050C68124E2C438D6842EA0522CA
:102000000E4DA84201D0B04206D1CF6822F4006242
:1020100042EA072222F48062A84201D0B04207D1EE
:102020004D6923F4405343EA05138D6943EA0513D0
:102030004360C4614968C1630262F0BD002C014085
:102040000034014030B5026A22F480520262046A10
:102050004268C3690D6823F4E64343EA05238D68AB
:1020600024F4005444EA0534084DA84202D0084D37
:10207000A84204D14D6922F4804242EA85124260AE
:10208000C36149680164046230BD0000002C014056
:102090000034014010B5036A046A24F001040462AC
:1020A000846924F0F00444EA021423F00A020A438B
:1020B0008461026210BD10B5036A23F0100303624D
:1020C0008369046A23F4704343EA023224F0A003D4
:1020D00043EA01118261016210BD10B5406A00211E
:1020E000C185C184FFF750FA10BD0168CA6822F4A7
:1020F0009072CA6001684A6922F001024A61016B6C
:10210000012904D10168CA6822F01002CA602021A6
:1021100080F83E1000210163704708B590F83E102A
:10212000222901D0022008BD82684FF480539A42D0
:1021300001D1016921B1816A9A421BD04AB10AE0FA
:102140000268816A5268C2F308020A80816A891CA7
:1021500008E0026972B10268526802F07F020A70F8
:10216000816A491C8162C18D491E0904090CC1851F
:1021700003D019E002685268F1E70168CA6822F0EA
:102180002002CA600168CA6822F48072CA600168CD
:102190004A6922F001024A61202180F83E10016B59
:1021A000012903D0FFF7AEFB002008BD0021016329
:1021B0000168CA6822F01002CA6001680A68D20683
:1021C00002D50A6849680091818DFFF7DCF9EBE7D9
:1021D00070B5044600680169E26821F4405111437A
:1021E00001612169A0680843616908432168CA68E0
:1021F00041F20C639A430243CA6020684169A269B4
:1022000021F44071114341611E492068884202D186
:10221000FEF776FC01E0FEF763FC00EBC00101EB8A
:102220000012606864218000B2FBF0F3B3FBF1F3AD
:102230006FF018067343B2FBF0F5B2FBF0F605EB56
:102240008305322303EB0515B5FBF1F5B6FBF1F67B
:1022500005F0F00505EB0615B2FBF0F6B2FBF0F069
:10226000B0FBF1F06FF01802504306EB800003EB77
:102270000010B0FBF1F0216800F00F0028448860E6
:1022800070BD00000038014081628285C285002156
:102290000164222280F83E2080F83C100168CA6860
:1022A00042F48072CA6001684A6942F001024A61E0
:1022B0000068C16841F02001C160002070472DE92D
:1022C000F041984617460E460446069D1DE0681CE0
:1022D0001BD02DB1FEF7D0FAA0EB0800A84214D90C
:1022E0002068C16821F4D071C1602068416921F083
:1022F00001014161202084F83D0084F83E00002067
:1023000084F83C000320BDE8F0812068006836EACC
:10231000000004D00020B842D9D00020F3E701200B
:10232000F9E7000010B50548FFF730F9BDE81040A7
:10233000012203490148FFF7CFBA0000D80100206D
:102340004100002010B50548FFF720F9BDE8104016
:10235000012203490148FFF7BFBA00001C02002018
:1023600040000020FEE700000FB4054B10B503A9A4
:10237000044A029800F02CF810BC5DF814FB000031
:10238000E9250008D00000200907090E002804DB19
:1023900000F1E02080F80014704700F00F0000F119
:1023A000E02080F8141D704700487047D4000020DA
:1023B00002E008C8121F08C1002AFAD1704770470E
:1023C000002001E001C1121F002AFBD1704700006C
:1023D0002DE9FF4F89B09B460446002506E02528DD
:1023E0000BD05A460B999047641C6D1C207800282E
:1023F000F5D10DB02846BDE8F08F0027B846012280
:10240000474900E0074314F8013F203B02FA03F07C
:102410000842F7D120782E2819D114F8010F47F07F
:1024200004072A280ED06FF02F022078A0F1300187
:1024300009290CD808EB880102EB410100EB0108E7
:10244000641CF2E70A98641C50F8048B0A90207808
:102450000028CED0642808D0692806D075281ED060
:102460005A460B9990476D1C58E00A994FF00A099B
:1024700001C90A91002802DA40422D2102E0390503
:1024800004D52B218DF82010012103E0F90704D099
:102490002021F7E78A4608AE0DE00021FAE70A9905
:1024A0004FF00A0901C90A91F7E74946FDF727FFEE
:1024B000303106F8011D0028F7D1ADEB060000F120
:1024C0002009780701D44FF00108C84502DDA8EBC8
:1024D000090000E000208046002706E008A85A46D0
:1024E000C05D0B9990476D1C7F1C5745F6DB04E0DF
:1024F00030205A460B9990476D1CB8F10001A8F1A5
:102500000108F5DC05E016F8010B5A460B999047D7
:102510006D1CB9F10001A9F10109F4DC641C65E747
:10252000092801002DE9F041234C06460F46606C56
:1025300001283FD1A06C01283CD12048FDF726FEA0
:1025400020661E481430FDF721FE60661B480025FA
:1025500005604560058145618561858318A0616DD1
:10256000FFF702FF1AA0A16DFFF7FEFE3046216EB5
:1025700000F062F920663846616E00F097F9226C2F
:10258000216E11442166E26B104460660846FFF735
:10259000A0FA2066606EFFF7A6FA6066B4F86010D5
:1025A00080B289B2FFF7ACFA0D4805600D480560AE
:1025B0006564A564BDE8F08140000020D8000020DB
:1025C000785F666C6167203D2025640A000000008A
:1025D000795F666C6167203D2025640A0000000079
:1025E000B8000020BC00002013B54FF47A7301221C
:1025F00069460248FFF712FA00981CBDD801002076
:10260000FEF748F9FFF7E8FBFFF78CFAFFF724FB2A
:10261000FFF7D4FAFFF7BEFBFFF7A0FBFFF76AFB5B
:1026200004217F48FEF730FF00217E48FEF72CFF93
:102630007B4940F2DC50096888637A494FF4617045
:1026400009684863012278497848FFF745F9764CD4
:10265000012600254FF4FA774FF4C8784FF44879F3
:10266000641EE06D012825D0A06A012829D0E06A07
:10267000012829D0206B012844D0606B012860D04C
:10268000A06B0128EDD1606A012873D0A0690128F0
:1026900071D0A06801286FD060680128E1D19B212A
:1026A000F020FFF73FFF6248FEF7B8FC206D0128DD
:1026B00076D08FE05C490122491E5E48FFF70CF995
:1026C0001DE09B21B4206EE060690128606814D091
:1026D0000128C6D19B21F020FFF724FF5448FEF7C4
:1026E0009DFC206D0128BCD1E06CB842B9DB50489C
:1026F000E564FEF7C9FC666186E00128B1D164217A
:10270000B92050E02069012816D060680128A8D1BE
:102710009B21F020FFF706FF4548FEF77FFC206D68
:1027200001289ED1E06CB8429BDB4148E564FEF78E
:10273000ABFC2661656067E060690128DFD0642139
:102740000BE06068012802D1616A012929D0616922
:10275000012912D0012884D19B21F020FFF7E2FE4D
:102760003348FEF75BFC206D01288BD1E06C4845B7
:10277000BCDBBCE715E019E033E06421B920FFF7CA
:10278000D1FE2B48FEF74AFC206D012886D1E06C73
:10279000B842ABDB2648E564FEF776FC666233E0C0
:1027A00034E032218220FFF7BDFE5AE76421822007
:1027B000FFF7B8FE1E48FEF731FC206D012809D155
:1027C000E06C4045F1DB1A48E564FEF75DFC6662AB
:1027D000A56119E00028E8D11548E564FEF754FC2E
:1027E0003FE79B21B920FFF79DFE1148FEF716FC3D
:1027F000206D0128EED1E06C4045D6DB0C48E56445
:10280000FEF742FCA661A56025652AE7E06C484515
:10281000CBDB0748E564FEF737FCC4E90156F3E774
:10282000000100204801002041000020D8010020C4
:10283000900100201C0200202DE9F041401AFDF714
:102840003CFD174C064631462062606AFDF7ABFC42
:102850006062054630462168FDF7F7FC26600146B8
:10286000A0621048854202DC0F48854200D96062B0
:102870002069FDF7F0FC0746616AE068FDF7EBFCB4
:1028800005463146A068FDF7E6FC2946FDF78BFCBE
:102890003946FDF788FCFDF719FDA063BDE8F0811E
:1028A0000000002000004843000048C32DE9F0412B
:1028B000401AFDF702FD174C06463146E062206BD8
:1028C000FDF771FC2063054630466168FDF7BDFCED
:1028D0006660014660631048854202DC0F4885420D
:1028E00000D92063E069FDF7B6FC0746216BA069BB
:1028F000FDF7B1FC054631466069FDF7ACFC2946A1
:10290000FDF751FC3946FDF74EFCFDF7DFFCE063B7
:10291000BDE8F0810000002000004843000048C3EB
:10292000000000000000000001020304060708097F
:1029300000000000010203040040404040404040CD
:102940004040414141414140404040404040404082
:102950004040404040404040400502020202020226
:102960000202020202020202022020202020202075
:102970002020200202020202020290909090909089
:102980001010101010101010101010101010101047
:1029900010101010020202020202888888888888BB
:1029A00008080808080808080808080808080808A7
:1029B0000808080802020202400000003929000845
:1029C000E029000800000020D8000000B023000823
:1029D000B82A0008D800002088050000C02300089D
:1029E0000000000000000000CDCC0C40CDCC4CBD60
:1029F0000000A841CDCC0CC0CDCC4C3D0000A8C1FE
:102A000000000000000000000000000000000000C6
:102A100000000000000000000000000000000000B6
:102A200000000000000000000000000000000000A6
:102A30000000000000000000000000000000000096
:102A40000000000000000000000000000000000086
:102A5000000000000000000000000000DC05000095
:102A600084030000000000000000000000000000DF
:102A7000000000000A0000000A0000000000000042
:102A80000000000000000000000000000000000046
:102A90000000000000000000000000000000000036
:102AA0000100000010000000000000000024F400FD
:082AB00000000000000000001E
:0400000508000131BD
:00000001FF
